:020000040000FA
:1000000002111F7FC87E008E0C8F0DE50D150DAE01
:100010000C7002150CD39400EE6480948040097F2C
:0A002000017E001213F880E3222293
:10002B00021483E4FFFE1214DB7D017C007FC812F7
:10003B0010331214D77D017C007F32121033121251
:10004B00AE7F017E000212B202131C8E0C8F0DE4E8
:10005B00F50EF50FF510F511F512F51378147C006C
:10006B00FD7BFF7A0A7928FE7F0812052F781C7C0E
:10007B00007D007BFF7A0A79307E007F0812052F06
:10008B0078247C007D007BFF7A0A79387E007F081C
:10009B0012052F782C7C007D007BFF7A0A79407E3D
:1000AB00007F0812052FE4F534F535E50D640145A5
:1000BB000C701012149A7D017C007F287E001210A8
:1000CB00338010E50D6403450C700512002E800380
:1000DB001213D47F0A1211ABE4F57AF57BD3E57BCF
:1000EB0094CAE57A940D5058309611E51345127069
:1000FB000BF512751301857A2C857B2D209613E554
:10010B001364014512700BF512751302857A2E8557
:10011B007B2F309613E51364024512700BF51275A5
:10012B001303857A30857B312096B2E51364034542
:10013B001270AAF512751304857A32857B33809D74
:10014B00121525E512600302044DE513146021140A
:10015B00602914700302022B14700302022B240477
:10016B00600302044D7BFF7A0879617D1302044B17
:10017B007BFF7A0879757D1A02044B7BFF7A08792D
:10018B008B7D0E7C0012137F750E07750FD0120A34
:10019B00488E108F117BFF7A08799A7D057C0012AF
:1001AB00137F7B007A007914AD11AC1012137F7B97
:1001BB00FF7A0779F77D027C0012137F7F147E0094
:1001CB001214C5C3E52F952DFFE52E952CFE7C0053
:1001DB007D0A1205CF8E348F35853478853579E4D9
:1001EB007F04FEFDAB77AA76A975A874120617A833
:1001FB0004A905AA06AB07AE34EE3395E0FDFCEB84
:10020B002535FFEA3EFEE93DFDE83CFCE47B05FAC3
:10021B00F9F812122D8F778E768D758C7402045A25
:10022B007F057E001214C5C3E52F952DFFE52E9596
:10023B002CFE7C007D0A1205CF8E348F35C3E5353D
:10024B0094B8E5346480948B4011750E00750F786B
:10025B007BFF7A0879A07D1102034BAD79AC78AFA7
:10026B0035AE341213A7C3EF9464EE6480948040D0
:10027B0057853478853579E47F04FEFDFCAB77AA8E
:10028B0076A975A874120617A804A905AA06AB07C8
:10029B00AE34EE3395E0FDFCEB2535FFEA3EFEE98F
:1002AB003DFDE83CFCE47B05FAF9F812122D8F7743
:1002BB008E768D758C74750E00750F787BFF7A08B2
:1002CB0079B27D127C008078E573C39405500302EC
:1002DB00037AAC76AD77AF35AE341213A7C3EF9478
:1002EB0064EE64809480500302037A8534788535FC
:1002FB0079E47F04FEFDFCAB77AA76A975A874128E
:10030B000617A804A905AA06AB07AE34EE3395E091
:10031B00FDFCEB2535FFEA3EFEE93DFDE83CFCE448
:10032B007B05FAF9F812122D8F778E768D758C74FA
:10033B00750E00750F787BFF7A0879C57D117C00EF
:10034B0012137F120A488E108F117BFF7A08799A4D
:10035B007D057C0012137F7B007A007914AD11AC04
:10036B001012137F7BFF7A0779F77D02020455D3B6
:10037B00E5359420E53464809483500B7BFF7A0839
:10038B0079D77D1302044BE47F04FEFDFCAB77AA07
:10039B0076A975A874120617A804A905AA06AB07B7
:1003AB00AE34EE3395E0FDFCEB2535FFEA3EFEE97E
:1003BB003DFDE83CFCE47B05FAF9F812122D8F7732
:1003CB008E768D758C74853478853579C3E531954A
:1003DB002FFFE530952EFE7C007D111205CF7D0A97
:1003EB001205E1AA06AB07C3E531952FFFE5309562
:1003FB002EFEEF25E0FFEE33FE7C007D641205E15F
:10040B00EB2FFFEA3ECF2450F50FE43FF50E7B00B8
:10041B007A007914AD0FFC120A528E108F117BFFEC
:10042B007A08799A7D057C0012137F7B007A00791C
:10043B0014AD11AC1012137F7BFF7A0779F77D0295
:10044B0080087BFF7A0879EB7D147C0012137FAE5A
:10045B000EAF0F22E709F608DFFA8046E709F2082C
:10046B00DFFA803E88828C83E709F0A3DFFA8032C3
:10047B00E309F608DFFA8078E309F208DFFA807007
:10048B0088828C83E309F0A3DFFA806489828A83F4
:10049B00E0A3F608DFFA805889828A83E0A3F2088A
:1004AB00DFFA804C80D280FA80C680D4806980F2DB
:1004BB008033801080A680EA809A80A880DA80E260
:1004CB0080CA803389828A83ECFAE493A3C8C582FD
:1004DB00C8CCC583CCF0A3C8C582C8CCC583CCDF40
:1004EB00E9DEE7800D89828A83E493A3F608DFF9BE
:1004FB00ECFAA9F0EDFB2289828A83ECFAE0A3C81F
:10050B00C582C8CCC583CCF0A3C8C582C8CCC58373
:10051B00CCDFEADEE880DB89828A83E493A3F208EE
:10052B00DFF980CC88F0EF60010E4E60C388F0EDF0
:10053B002402B4040050B9F582EB2402B404005039
:10054B00AF23234582239004AF73BB010689828AB4
:10055B0083E0225002E722BBFE02E32289828A83D8
:10056B00E49322BB010CE58229F582E5833AF583FE
:10057B00E0225006E92582F8E622BBFE06E9258239
:10058B00F8E222E58229F582E5833AF583E49322AA
:10059B00BB010689828A83F0225002F722BBFE013F
:1005AB00F322F8BB010DE58229F582E5833AF58349
:1005BB00E8F0225006E92582C8F622BBFE05E925A4
:1005CB0082C8F222EF8DF0A4A8F0CF8CF0A428CE35
:1005DB008DF0A42EFE22C2D5EC30E709B2D5E4C3D0
:1005EB009DFDE49CFCEE30E715B2D5E4C39FFFE420
:1005FB009EFE1206B6C3E49DFDE49CFC800312062E
:10060B00B630D507C3E49FFFE49EFE22E88FF0A42B
:10061B00CC8BF0A42CFCE98EF0A42CFC8AF0EDA47E
:10062B002CFCEA8EF0A4CDA8F08BF0A42DCC3825B1
:10063B00F0FDE98FF0A42CCD35F0FCEB8EF0A4FE91
:10064B00A9F0EB8FF0A4CFC5F02ECD39FEE43CFC26
:10065B00EAA42DCE35F0FDE43CFC22EB9FF5F0EA4D
:10066B009E42F0E99D42F0EC6480C864809845F0AE
:10067B0022E86010ECA2E713FCED13FDEE13FEEF86
:10068B0013FFD8F022D083D082F8E4937012740158
:10069B0093700DA3A393F8740193F5828883E4738D
:1006AB007402936860EFA3A3A380DFBC000BBE00B2
:1006BB0029EF8DF084FFADF022E4CCF875F008EF54
:1006CB002FFFEE33FEEC33FCEE9DEC984005FCEE79
:1006DB009DFE0FD5F0E9E4CEFD22EDF8F5F0EE84AA
:1006EB0020D21CFEADF075F008EF2FFFED33FD406F
:1006FB0007985006D5F0F222C398FD0FD5F0EA22E9
:10070B0075F008758200EF2FFFEE33FECD33CDCCA5
:10071B0033CCC58233C5829BED9AEC99E582984028
:10072B000CF582EE9BFEED9AFDEC99FC0FD5F0D605
:10073B00E4CEFBE4CDFAE4CCF9A88222B800C1B92F
:10074B000059BA002DEC8BF084CFCECDFCE5F0CB6D
:10075B00F97818EF2FFFEE33FEED33FDEC33FCEBA6
:10076B0033FB10D703994004EB99FB0FD8E5E4F961
:10077B00FA227818EF2FFFEE33FEED33FDEC33FC4E
:10078B00C933C910D7059BE99A4007EC9BFCE99A42
:10079B00F90FD8E0E4C9FAE4CCFB2275F010EF2F87
:1007AB00FFEE33FEED33FDCC33CCC833C810D70787
:1007BB009BEC9AE899400AED9BFDEC9AFCE899F8C2
:1007CB000FD5F0DAE4CDFBE4CCFAE4C8F92272657C
:1007DB0063765F636D645F524541445F4D454153A2
:1007EB005F5345545550206661696C000D0A00310A
:1007FB000030007265616420656570726F6D0D0A63
:10080B0000726563765F636D645F454550524F4D73
:10081B00206661696C00726563765F626974732030
:10082B006661696C0D0A00746876616C20696E7084
:10083B007574206572726F720D0A00726563762093
:10084B007468726573686F6C642062697473206678
:10085B0061696C0D0A00656C6D6F733A6E6F5F6545
:10086B006C6D6F736572720D0A00656C6D6F733A08
:10087B006669727369676E616C5F6572720D0A00EF
:10088B00656C6D6F733A6E6F5F7265660D0A00640F
:10089B006973743A00656C6D6F733A6C656E5F6467
:1008AB00656174680D0A00656C6D6F733A636F6DEB
:1008BB00705F64656174680D0A00656C6D6F733AE7
:1008CB006176615F64656174680D0A00656C6D6FBC
:1008DB00733A6E6F5F6465746563746F720D0A00B3
:1008EB0070726F6475636520776F726B20657272BF
:1008FB006F720D0A000000000000000000000000F5
:10090B0000000000000000000000000000000000DC
:10091B0000000000000000000000000000000000CC
:10092B0000000000000000000000000000000000BC
:10093B0000000000000000000000000000000000AC
:10094B00000000000000000000000000000000009C
:10095B00000000000000000000000000000000008C
:10096B00000000000000000000000000000000007C
:10097B00000000000000000000000000000000006C
:10098B000000110F0A0A0808080F0F0F0F0F0000C5
:10099B00000000000000000000000000000000004C
:1009AB00000000000000000000000000000000003C
:1009BB00000000000000000000000000000000002C
:1009CB00000000000000000000000000000000001C
:1009DB00000000000000000000000000000000000C
:1009EB0000000000000000000000000000000000FC
:1009FB0000000000000000000000000000000000EC
:100A0B0000000000000000000000000000000000DB
:100A1B0000000000000000000000000000000000CB
:100A2B0000000000000000000000000000000000BB
:100A3B00000000000000000000000000007B007AB6
:100A4B00007914AD0FAC0E8B368A3789388C398D03
:100A5B003AE4F53BF53CC3E53A9410E539648094F0
:100A6B00A75003020B17753B00753C05AE39AF3A27
:100A7B007C277D101205E1EF243012059BAE39AFB8
:100A8B003A7C277D101205E17E037FE8CFCDCFCED8
:100A9B00CCCE1205E1EF2430AB36AA37A938900043
:100AAB00011205ADAE39AF3A7C037DE81205E17E4C
:100ABB00007F64CFCDCFCECCCE1205E1EF2430AB8F
:100ACB0036AA37A9389000021205ADAE39AF3A7C81
:100ADB00007D641205E17E007F0ACFCDCFCECCCE58
:100AEB001205E1EF2430AB36AA37A9389000031278
:100AFB0005ADAE39AF3A7C007D0A1205E1ED24302D
:100B0B00AB36AA37A938900004020C57C3E53A94C8
:100B1B00E8E539648094835003020BAC753B007598
:100B2B003C04AE39AF3A7C037DE81205E1EF24308B
:100B3B00AB36AA37A93812059BAE39AF3A7C037D89
:100B4B00E81205E17E007F64CFCDCFCECCCE12056F
:100B5B00E1EF2430AB36AA37A9389000011205AD6E
:100B6B00AE39AF3A7C007D641205E17E007F0ACF7F
:100B7B00CDCFCECCCE1205E1EF2430AB36AA37A9C0
:100B8B00389000021205ADAE39AF3A7C007D0A12E7
:100B9B0005E1ED2430AB36AA37A938900003020CDF
:100BAB0057C3E53A9464E53964809480405D753BA6
:100BBB0000753C03AE39AF3A7C007D641205E1EF62
:100BCB002430AB36AA37A93812059BAE39AF3A7C25
:100BDB00007D641205E17E007F0ACFCDCFCECCCE57
:100BEB001205E1EF2430AB36AA37A9389000011279
:100BFB0005ADAE39AF3A7C007D0A1205E1ED24302C
:100C0B00AB36AA37A9389000028041C3E53A940A63
:100C1B00E539648094804039753B00753C02AE39F0
:100C2B00AF3A7C007D0A1205E1EF2430AB36AA37D0
:100C3B00A93812059BAE39AF3A7C007D0A1205E14B
:100C4B00ED2430AB36AA37A9389000011205AD80E0
:100C5B0013753B00753C01E53A2430AB36AA37A936
:100C6B003812059BAE3BAF3C22782D7C007D007B80
:100C7B00FF7A0979667E007F0312052F78307C009E
:100C8B007D007BFF7A0979697E007F2412052FE4B2
:100C9B00F50E750F01751001751101751201F51324
:100CAB00751401F515F516F51775180175190175FC
:100CBB001A01F51B751C01F51D751E01F51F75201D
:100CCB0001752101F522F523752401F525F526F98A
:100CDB007F01FE7D01752701F528F529F52A752B76
:100CEB0001F52CFCF50CF50DAB0D740E2BF8E6FA9B
:100CFB0074302BF8A602AB0D74162BF8E6FA743889
:100D0B002BF8A602AB0D741E2BF8E6FA74402BF8E9
:100D1B00A602AB0D74112BF8E6FA74332BF8A6026E
:100D2B00AB0D74192BF8E6FA743B2BF8A602AB0D3E
:100D3B0074212BF8E6FA74432BF8A602050DE50D8A
:100D4B007002050C6403450C709EE4F50CF50DABBD
:100D5B000D74142BF8E6FA74362BF8A602AB0D744F
:100D6B001C2BF8E6FA743E2BF8A602AB0D74242B61
:100D7B00F8E6FA74462BF8A602AB0D74272BF8E6AF
:100D8B00FA744D2BF8A602AB0D74292BF8E6FA7406
:100D9B004F2BF8A602AB0D742B2BF8E6FA74512BE4
:100DAB00F8A602050DE50D7002050C6402450C70EA
:100DBB009E85264889498F4A8E4B8D4C8C53E4F582
:100DCB000CF50DC3E50D9408E50C64809480500A76
:100DDB007430250DF8E66002052FAF0D74382FF82F
:100DEB00E66002052E74462FF8E66002052D050D10
:100DFB00E50D7002050C640E450C70C7532D0153A5
:100E0B002E01532F01121418E4F50CF50D74302537
:100E1B000DF8E6FF3395E0FE1212B2050DE50D70ED
:100E2B0002050CC39424E50C6480948040DFE4F548
:100E3B000CF50D742D250DF8E6FF3395E0FE12121F
:100E4B00B2050DE50D7002050CC39403E50C64802F
:100E5B00948040DF2278107C007D007BFF7A09793B
:100E6B008D7E007F0C12052FE4F51CF51D751E0100
:100E7B00F51F75200178217C00FD7BFF7A0979999C
:100E8B00FE7F0512052F78267C007D007BFF7A09FB
:100E9B00799E7E007F4512052FE4F50EF50F741039
:100EAB00250FF8E6FFD36480949F5008C3EF64804E
:100EBB009480500D7BFF7A0879327D147C001213DD
:100ECB007FE4F50CF50DAD0F74102DF8E6FB3395A3
:100EDB00E0FAAC0D74017E00A804088005C333CE84
:100EEB0033CED8F9FFEE5AFEEF5B4E6014ED75F082
:100EFB0005A4FFECFDC3EF9DFF742A2FF87601804C
:100F0B0010E50F75F005A4C3950DFF742A2FF8E4B7
:100F1B00F6050DE50D7002050C6405450C70A70573
:100F2B000FE50F7002050EC3940CE50E64809480E0
:100F3B005003020EA9E51C5402A2E713F562E51C4F
:100F4B005401F563E51D5402A2E713F564E51D5446
:100F5B0001F565E51E5402A2E713F566E51E540183
:100F6B00F567E51F5401F568E5205402A2E713F578
:100F7B0069E5205401F56AE4F50CF50DC3E50D9414
:100F8B000DE50C64809480500A7426250DF8E660FC
:100F9B00020525AF0D74332FF8E66002052474416A
:100FAB002FF8E660020523744F250DF8E660020565
:100FBB0022745D250DF8E660020521050DE50D7027
:100FCB0002050C640E450C70B353210153220153DF
:100FDB00230153240153250112144FE4F50CF50D95
:100FEB007426250DF8E6FF3395E0FE1212B2050DBF
:100FFB00E50D7002050CC39445E50C6480948040AC
:10100B00DFE4F50CF50D7421250DF8E6FF3395E0C3
:10101B00FE1212B2050DE50D7002050CC39405E529
:10102B000C6480948040DF228C6B8D6CE5C854047B
:10103B00F56DEE60030210DAEF12069010720A10D3
:10104B007A19108228108A3210923C109A4110A201
:10105B004410AA4710B24B10BA5A10C26410CAC837
:10106B0010D2FA000010DA756EFF756FEC806D759B
:10107B006EFF756FCD8065756EFF756FAE805D759C
:10108B006EFF756F9A8055756EFF756F86804D7507
:10109B006EFF756F7C8045756EFF756F75803D7546
:1010AB006EFF756F6F8035756EFF756F67802D7571
:1010BB006EFF756F488025756EFF756F34801D75DB
:1010CB006EFE756F688015756EFE756F02800D7BF9
:1010DB00FF7A1279717D247C0012137F53C8FB8534
:1010EB006ECD856FCC856ECB856FCA43C804E56D1D
:1010FB0042C853C8FCE4F57CF57DC3E57D956CE5F2
:10110B006B6480F8E57C64809840EFE4F57CF57DBA
:10111B0053C8FB22787FE4F6D8FD75817E021166F9
:10112B0002134BE493A3F8E493A34003F68001F27C
:10113B0008DFF48029E493A3F85407240CC8C333C5
:10114B00C4540F4420C8834004F456800146F6DF94
:10115B00E4800B01020408102040809014E5E47E2B
:10116B00019360BCA3FF543F30E509541FFEE49389
:10117B00A360010ECF54C025E060A840B8E493A350
:10118B00FAE493A3F8E493A3C8C582C8CAC583CA7B
:10119B00F0A3C8C582C8CAC583CADFE9DEE780BE33
:1011AB00E5C85404F538EF24E7602024E7602424D5
:1011BB00E7602824E7602C249C603024CE60342424
:1011CB00F070387536FF7537EC803D7536FF753727
:1011DB00CD80357536FF75379A802D7536FF75378F
:1011EB006780257536FF753734801D7536FE75376C
:1011FB006880157536FE753702800D7BFF7A127984
:10120B00957D197C0012137F53C8FB8536CD85372E
:10121B00CC8536CB8537CA43C804E53842C853C89A
:10122B00FC22C2D5E830E70FB2D5E4C39BFBE49AAE
:10123B00FAE499F9E498F8EC30E717B2D512126397
:10124B00120747E4C39BFBE49AFAE499F9E498F894
:10125B00800312074730D50DE4C39FFFE49EFEE4E5
:10126B009DFDE49CFC226572726F7220706172614D
:10127B0020666F722074696D65725F736C65657043
:10128B0075735F73656C656374006572726F722042
:10129B007061726120666F72207365745F74696D23
:1012AB006572007F017E00AD07AC06E4FFFE1214F1
:1012BB00DBED4C7D017C0060107F28121033121483
:1012CB00D77D017C007F5A80107F5A7E001210332D
:1012DB001214D77D017C007F281210332285A70CB6
:1012EB0012152F12155812150112150E12154A123E
:1012FB00155C1215381215411200291214F3121431
:10130B006A12151B1214B0121560121551850CA719
:10131B0022C0E0C0D075D000C006C007750B0075A9
:10132B000A00750900750800C2EDAFBDAEBEE48FB3
:10133B000B8E0AF509F508D007D006D0D0D0E032D5
:10134B001212E8120003120C74120003120E601238
:10135B000003120C74120003120E607FF47E011254
:10136B0000071200037F017E0012005680F47B0001
:10137B007D087C008B708A718972AB700572E57287
:10138B00AA717002057114F9120555F5993099FD82
:10139B00C299ED1D70011C144C70DF22D3EF9DEC34
:1013AB006480F8EE6480984007EF9DFFEE9CFE2270
:1013BB00C3EF9DEC6480F8EE6480985008C3ED9FFA
:1013CB00FFEC9EFE22E4FEFF22E4FFFE1214DB7D07
:1013DB00017C007FC81210331214D77D017C007F73
:1013EB00321210331212AEE4FFFE0212B27C037DF6
:1013FB00201205CF8E0E8F0FE50F150FAE0E70025C
:10140B00150ED39400EE6480948050EC22121434A9
:10141B00E4FFFE1212B2E4FFFE1212B2E4FFFE1260
:10142B0012B27F017E000212B2E4FFFE1214DB7DCA
:10143B00017C007FFA1210331214D77D017C007FE0
:10144B0032021033121434E4FFFE1212B2E4FFFE28
:10145B001212B2E4FFFE1212B2E4FFFE0212B2E568
:10146B00C8540453C8FB75CDB075CC3F75CBB07564
:10147B00CA3F43C80442C822C0E0C2CF057BE57B0C
:10148B007002057A057DE57D7002057CD0E032E4C3
:10149B00FFFE1214DB7D017C007F5A1210337F019B
:1014AB007E000214DB75960C75BA81759710E4F506
:1014BB00C4F5C353E8F843E842220573C3E5739FB1
:1014CB00EE6480F874809840028F73227F017E0057
:1014DB00EF4E6003C29722D29722027806D604748D
:1014EB00000006D601730000AF88758800758D2B40
:1014FB00758BCB8F8822E4F5A475F17D75D40175BE
:10150B00C7402275A58775F2EF75D51075BF0822F8
:10151B00758E0875892043884022E5C85404F5363A
:10152B0053C8FB22E4F5A753D9BFF5D92243B280A8
:10153B00E5B230E6FB22E4F5A9E5A930E7FB22751D
:10154B00E34075E1012275E60875A8A02275C91064
:09155B002275EF062243981022CC
:00000001FF
