:020000040000FA
:10000000020C758F34753508E53430E70575360117
:100010008003E4F536AF36120BD7E53425E0F5342E
:10002000D535E5120B752275C91022020C218E18E8
:100030008F19E5191519AE1870021518D39400EE32
:100040006480948040097F017E00120B9780E32238
:01005000228D
:10005300020AEE0202FEE86480F8E933E833601135
:100063000460F0ED33EC337009E8FCE9FDEAFEEBE4
:10007300FF220460DED3EB9FEA9EE99DE8C2E78C92
:10008300F0C2F795F0400CE8CCF8E9CDF9EACEFAE6
:10009300EBCFFB1202C985D0F05804700320D5B30F
:1000A300E80470075002B2D502030892D5EC04604D
:1000B300F7E4CCC0E0C398F8603B94186008400DA7
:1000C300D0E0FB0202E0E4FBFAC9FC8028E830E45C
:1000D30006E4C9FBE4CAFCE830E305E4C9CACBFC87
:1000E300E854076010F8C3E913F9EA13FAEB13FBBA
:1000F300EC13FCD8F130F52FC3E49CFCEF9BFFEE2F
:100103009AFEED99FDD0E0FBEF4E4D4C701222DBD1
:1001130003020305EC2CFCEF33FFEE33FEED33FD5E
:10012300ED30E7EB0202E0EF2BFFEE3AFEED39FD97
:10013300D0E0FB50130BBB0003020308ED13FDEEED
:1001430013FEEF13FFEC13FC0202E0EC4D6011E829
:10015300497017ED33EC3304600DE4FCFFFEFD2220
:10016300E933E8330470F80202FE1202C95804604E
:1001730009E4CC24815006285009020308284003CF
:10018300020305C0E0EB4A7044B98006D0E0FB02ED
:1001930002F4EF4E701CBD8008EBFFEAFEE9FD8020
:1001A300EBE98DF0A4FEE5F0020237E9CDF9EAFEB2
:1001B300EBFFEF89F0A4FCE5F0CE89F0A42EFFE479
:1001C30035F0CD89F0A42DFEE435F08067EF4E7055
:1001D30005BD80D780C3EF8BF0A4ACF0EE8BF0A409
:1001E3002CFCE435F0F8EF8AF0A42CE5F038FCE4BD
:1001F30033CB8DF0A42CFCE5F03BF8EE8AF0A42C75
:10020300FCE5F038F8E433CF89F0A42CFCE5F038B2
:10021300CF3400CE89F0A42FFFE5F03EFEE433C9CE
:100223008DF0A42EFEE5F039CD8AF0A42FFFE5F082
:100233003EFEE43DFD33D0E0FB50070BBB000F0255
:100243000308EC2CFCEF33FFEE33FEED33FD02022B
:10025300E075F020800E75F010800575F0087D00C4
:100263007E007F003392D530D5031204EAEC33408D
:1002730010EF33FFEE33FEED33FDEC33FCD5F0ED41
:1002830022E5F0247EA2D513CC92E7CDCEFF22ED5A
:10029300D2E7CD33EC3392D524814006E4FFFEFD53
:1002A300FC22FCE4CFCECDCC24E0501174FF80EDD2
:1002B300C3CC13CCCD13CDCE13CECF13CF0470F05C
:1002C30030D5DE0204EAE9D2E7C933E833F892D540
:1002D300EDD2E7CD33EC33FC5002B2D522EC30E75C
:1002E300100FBF000C0EBE00080DBD00040BEB6029
:1002F30014A2D5EB13FCED92E7FD2274FFFCFDFE87
:10030300FF22E480F8A2D574FF13FC7D80E480EF24
:10031300E709F608DFFA8046E709F208DFFA803ECC
:1003230088828C83E709F0A3DFFA8032E309F608B9
:10033300DFFA8078E309F208DFFA807088828C8321
:10034300E309F0A3DFFA806489828A83E0A3F608D5
:10035300DFFA805889828A83E0A3F208DFFA804CAF
:1003630080D280FA80C680D4806980F28033801086
:1003730080A680EA809A80A880DA80E280CA8033EF
:1003830089828A83ECFAE493A3C8C582C8CCC58367
:10039300CCF0A3C8C582C8CCC583CCDFE9DEE78037
:1003A3000D89828A83E493A3F608DFF9ECFAA9F0B6
:1003B300EDFB2289828A83ECFAE0A3C8C582C8CC0C
:1003C300C583CCF0A3C8C582C8CCC583CCDFEADE25
:1003D300E880DB89828A83E493A3F208DFF980CC87
:1003E30088F0EF60010E4E60C388F0ED2402B40480
:1003F3000050B9F582EB2402B4040050AF23234527
:10040300822390036373BB010689828A83E02250AF
:1004130002E722BBFE02E32289828A83E49322BBA2
:10042300010CE58229F582E5833AF583E022500643
:10043300E92582F8E622BBFE06E92582F8E222E5F9
:100443008229F582E5833AF583E49322BB01068989
:10045300828A83F0225002F722BBFE01F322F8BB0B
:10046300010DE58229F582E5833AF583E8F0225010
:1004730006E92582C8F622BBFE05E92582C8F222D9
:10048300EF8DF0A4A8F0CF8CF0A428CE8DF0A42E8D
:10049300FE22BC000BBE0029EF8DF084FFADF022DD
:1004A300E4CCF875F008EF2FFFEE33FEEC33FCEEEF
:1004B3009DEC984005FCEE9DFE0FD5F0E9E4CEFDE2
:1004C30022EDF8F5F0EE8420D21CFEADF075F008B5
:1004D300EF2FFFED33FD4007985006D5F0F222C30E
:1004E30098FD0FD5F0EA22C3E49FFFE49EFEE49D4E
:1004F300FDE49CFC22EB9FF5F0EA9E42F0E99D426D
:10050300F0EC6480C864809845F022D083D082F8F0
:10051300E4937012740193700DA3A393F874019381
:10052300F5828883E4737402936860EFA3A3A380C6
:10053300DF8F1C8D1D781E7C007D007BFF7A0A797E
:10054300AA7E007F081203E3E4F526F527F52BF5D1
:100553002CF533E51C25E0F51C120C091533E533A6
:100563006058120BB7AF1C120003EF70ECAF1D12F3
:100573000003EF70E4120BB7E51C04FF120003EF56
:1005830070D7E4FF120B4B8F2BE4FF120B4B8F2C16
:100593007F01120B4B8F2A120C09851C32851D31EA
:1005A300E51C04F530852B2F852C2EE4F52DFB7AE5
:1005B30000792D120759EFB52A9FE52C1208FC8EFE
:1005C300268F277BFF7A0A79867D067C00120B2310
:1005D3007B007A00791EAD27AC26120B237BFF7AB2
:1005E3000A798D7D027C00120B23E52B1208FC8E09
:1005F300268F277BFF7A0A79907D067C00120B23D6
:100603007B007A00791EAD27AC26120B237BFF7A81
:100613000A798D7D027C00120B23E52CF528E52B4E
:10062300F5297B007A00791EAD29AC281209058EC5
:10063300268F277BFF7A0A79977D097C00120B238B
:100643007B007A00791EAD27AC26120B237BFF7A41
:100653000A798D7D027C00120B23AE28AF29228CF0
:100663003A8D3BE5C85404F53CEE6003020714EFF2
:1006730012050E06A40106AC0A06B41906BC280628
:10068300C43206CC3C06D44106DC4406E44706ECFF
:100693004B06F45A06FC640704C8070CFA0000076B
:1006A30014753DFF753EFE8075753DFF753EEC800C
:1006B3006D753DFF753ECD8065753DFF753EAE8022
:1006C3005D753DFF753E9A8055753DFF753E86808D
:1006D3004D753DFF753E7C8045753DFF753E7580CC
:1006E3003D753DFF753E6F8035753DFF753E6780F7
:1006F3002D753DFF753E488025753DFF753E348061
:100703001D753DFE753E688015753DFE753E028084
:100713000D7BFF7A0A79497D247C00120B2353C891
:10072300FB853DCD853ECC853DCB853ECA43C80484
:10073300E53C42C853C8FCE4F544F545C3E545959B
:100743003BE53A6480F8E54464809840EFE4F5447F
:10075300F54553C8FB228B348A358936753D2FE422
:10076300F53CF53BF53AF539753801753707753DB5
:100773002FF53E753F05F540AB34AA35A936853FC5
:1007830082758300120422FD7C0074807E00A840E1
:10079300088006CEA2E713CE13D8F8FFEE5CFEEF77
:1007A3005D4E701AE53FD394004013153DE5409428
:1007B300075004054080C1E4F540153F80BAE53D8C
:1007C30024F8F53EE53E6040753F05E53FC394FFE1
:1007D30050327436253FF8E630E70CE53FD39400FA
:1007E30040057541018003E4F5417437253FF8C0A6
:1007F30000E625E0D000F67437253FF8E54126F6FC
:10080300153F80C7153E80BCE4F53FAB34E5362584
:100813003FF9E43535FA120409FF7437253FF8E64A
:100823006F12044F053FE53FB406E0E53DD394085E
:100833004003020762AB34AA35A936120409FF222A
:10084300D2967F0A7E008E388F39E539453870039A
:100853000208FBE539640145386030E539640A452F
:10086300386028E539641945386020E5396428453E
:10087300386018E539643245386010E539643C4521
:10088300386008E53964644538700A7D017C00AF3F
:1008930039AE388060C3E539940AE5389400500ACC
:1008A300AD39AC387F017E00804BC3E53994E8E570
:1008B300389403AE38AF397C007D0A502D1204956D
:1008C300AC06AD077F0A7E00120662AE38AF397CF4
:1008D300007D0A1204957C007D0A120483C3E53966
:1008E3009FFDE5389EFC7F018009120495AC06AD9F
:1008F300077F0A7E00120662227B007A00791EFDC2
:100903007C008B348A358936AB05AA04E4F537F5C8
:10091300388A3B8B3CD3E53C9400E53B940040197B
:10092300AE3BAF3C7C007D0A1204958E3B8F3C05A9
:1009330038E53870E0053780DC8A3B8B3CE4F539D9
:10094300F53AC3E53A9538E5376480F8E5396480CC
:10095300985048AE3BAF3C7C007D0A120495ED24D1
:1009630030FFE53824FFFDE53734FFFCC3ED953A4E
:10097300FDEC9539AB34AA35A9368D82F583EF1298
:100983000461AE3BAF3C7C007D0A1204958E3B8F25
:100993003C053AE53A70AB053980A7AE37AF38224C
:1009A300780C7C007D007BFF7A0A79B27E007F0899
:1009B3001203E3E4F514F515120ABA120A068E16A9
:1009C3008F177B007A00790CAD17AC161209058ED0
:1009D300148F157BFF7A0A79A17D087C00120B2303
:1009E3007B007A00790CAD15AC14120B237BFF7AD4
:1009F3000A798D7D027C00120B237FF47E011200A5
:100A03002E80B87D27E4FF120534AD07AC06E4124F
:100A130002597B0A7AD779A3783C12014E7B337A49
:100A230093798878C312005D8F1B8E1A8D198C18E9
:100A3300E4FFFE7DC87C42AB1BAA1AA919A81812B1
:100A4300014E120292226572726F7220706172619E
:100A530020666F722074696D65725F736C65657073
:100A630075735F73656C656374006572726F722072
:100A73007061726120666F72207365745F74696D53
:100A830065720044617461483A000D0A0044617460
:100A9300614C3A0074656D70646174613A006F6211
:100AA3006A74656D703A00000000000000000000E9
:100AB3000000000000000085A718120C8B1200270D
:100AC300120C5B120C68120CA6120CB4120C9412CA
:100AD3000C9D120050120C4D120BF0120C81120CD3
:100AE30038120CB8120CAD8518A722C0E0C0D0751F
:100AF300D000C006C007750B00750A0075090075A4
:100B03000800C2EDAFBDAEBEE48F0B8E0AF509F54A
:100B130008D007D006D0D0D0E0327B007D087C001F
:100B23008B3F8A408941AB3F0541E541AA407002B2
:100B3300054014F9120409F5993099FDC299ED1D88
:100B430070011C144C70DF228F34753608120B753C
:100B5300EF600BE53525E0F5354335018009E535D3
:100B630025E0F5355335FED536E3AF34120BD7AF59
:100B73003522D297D2967F027E001208493097051C
:100B83007537018003E4F537C2967F047E001208AF
:100B930049AF37227C037D201204838E1A8F1BE515
:100BA3001B151BAE1A7002151AD39400EE648094C1
:100BB3008050EC22D2977F017E00120849D2967FA3
:100BC300057E00120849C297120845C2967F027E2D
:100BD30000020849EF7004C2978002D2977F027E19
:100BE30000120849120843C29612084522E5C85468
:100BF3000453C8FB75CDB075CC3F75CBB075CA3FF8
:100C030043C80442C822C2967F057E00120849C227
:100C1300977F057E00120849120843D29722C0E04D
:100C2300C2CF0543E543700205420545E545700221
:100C33000544D0E03275960C75BA81759710E4F5CA
:100C4300C4F5C353E8F843E84222AF8875880075BA
:100C53008D2B758BCB8F8822E4F5A475F17D75D42C
:100C63000175C7402275A58775F2EF75D51075BF5D
:100C73000822787FE4F6D8FD7581460209A3758EB4
:100C83000875892043884022E4F5A753D9BFF5D9D5
:100C93002243B280E5B230E6FB22E4F5A9E5A930B0
:100CA300E7FB2275E34075E1012275E60875A8A00C
:090CB3002275EF0622439810227D
:00000001FF
